:1000000002005BB400037B3F22B401037B0622B4F1
:1000100002037B5B22B403037B4F22B404037B66A1
:1000200022B405037B6D22B406037B7D22B4070353
:100030007B0722B408037B7F22B409037B6F222253
:10004000EF1200038BB0EE1200038BA0ED12000341
:100050008B90EC1200038B8002009475803F7590AA
:100060003F75A03F75B03F7B007C007D007E007F28
:1000700000740002009420A7FD20A709DAFBD9F93B
:10008000D8F70200400DBD0AED7D000CBC06E77CF0
:10009000000200761200CB20B7C120A71B0FBF0AB9
:1000A0009F7F000EBE06997E000DBD0A937D000C59
:1000B000BC068D7C000200407D007C00ED12000338
:1000C0008B90EC1200038B800200797815D9FEDA50
:0400D000FCD8FA223C
:00000001FF
