:1000000002005DB400037B3F22B401037B0622B4EF
:1000100002037B5B22B403037B4F22B404037B66A1
:1000200022B405037B6D22B406037B7D22B4070353
:100030007B0722B408037B7F22B409037B6F222253
:10004000EF1200038BB0EE1200038BA0ED12000341
:100050008B90EC1200038B80E5F002009975803FD5
:1000600075903F75A03F75B03F7B007C007D007EA2
:10007000007F00740030A7FD02008A20A7FD20A7A2
:1000800009DAFBD9F9D8F70200400DBD0AED7D0071
:100090000CBC06E77C0002007B1200D020B7BE201B
:1000A000A71B0FBF0A9A7F000EBE06947E000DBDEF
:1000B0000A8E7D000CBC06887C000200407D007C1E
:1000C00000ED1200038B90EC1200038B8002007E87
:0900D0007815D9FEDAFCD8FA22F9
:00000001FF
