:1000000002005DB400037B3F22B401037B0622B4EF
:1000100002037B5B22B403037B4F22B404037B66A1
:1000200022B405037B6D22B406037B7D22B4070353
:100030007B0722B408037B7F22B409037B6F222253
:10004000EF1200038BB0EE1200038BA0ED12000341
:100050008B90EC1200038B80E5F002009675803FD8
:1000600075903F75A03F75B03F7B007C007D007EA2
:10007000007F00740002009620A7FD20A709DAFB8C
:10008000D9F9D8F70200400DBD0AED7D000CBC0681
:10009000E77C000200781200CD20B7C120A71B0F1B
:1000A000BF0A9D7F000EBE06977E000DBD0A917DA2
:1000B000000CBC068B7C000200407D007C00ED1231
:1000C00000038B90EC1200038B8002007B7815D923
:0600D000FEDAFCD8FA2262
:00000001FF
