:1000000002005BB400037B3F22B401037B0622B4F1
:1000100002037B5B22B403037B4F22B404037B66A1
:1000200022B405037B6D22B406037B7D22B4070353
:100030007B0722B408037B7F22B409037B6F222253
:10004000EF1200038BB0EE1200038BA0ED12000341
:100050008B90EC1200038B8002009775803F7590A7
:100060003F75A03F75B03F7B007C007D007E007F28
:1000700000740030A7FD02008820A7FD20A709DA40
:10008000FBD9F9D8F70200400DBD0AED7D000CBC8C
:1000900006E77C000200791200CE20B7BE20A71B25
:1000A0000FBF0A9C7F000EBE06967E000DBD0A9013
:1000B0007D000CBC068A7C000200407D007C00EDC7
:1000C0001200038B90EC1200038B8002007C7815E9
:0700D000D9FEDAFCD8FA2288
:00000001FF
